{
  "_format": "hh-sol-artifact-1",
  "contractName": "GachaGame",
  "sourceName": "contracts/GachaGame.sol",
  "abi": [
    {
      "inputs": [
        {
          "internalType": "address",
          "name": "_vrfCoordinator",
          "type": "address"
        },
        {
          "internalType": "uint64",
          "name": "_subscriptionId",
          "type": "uint64"
        },
        {
          "internalType": "bytes32",
          "name": "_keyHash",
          "type": "bytes32"
        }
      ],
      "stateMutability": "nonpayable",
      "type": "constructor"
    },
    {
      "inputs": [
        {
          "internalType": "address",
          "name": "have",
          "type": "address"
        },
        {
          "internalType": "address",
          "name": "want",
          "type": "address"
        }
      ],
      "name": "OnlyCoordinatorCanFulfill",
      "type": "error"
    },
    {
      "anonymous": false,
      "inputs": [
        {
          "indexed": true,
          "internalType": "uint256",
          "name": "requestId",
          "type": "uint256"
        },
        {
          "indexed": true,
          "internalType": "address",
          "name": "player",
          "type": "address"
        },
        {
          "indexed": false,
          "internalType": "uint256",
          "name": "amount",
          "type": "uint256"
        },
        {
          "indexed": false,
          "internalType": "uint256",
          "name": "multiplier",
          "type": "uint256"
        }
      ],
      "name": "BetPlaced",
      "type": "event"
    },
    {
      "anonymous": false,
      "inputs": [
        {
          "indexed": true,
          "internalType": "uint256",
          "name": "requestId",
          "type": "uint256"
        },
        {
          "indexed": true,
          "internalType": "address",
          "name": "player",
          "type": "address"
        },
        {
          "indexed": false,
          "internalType": "bool",
          "name": "won",
          "type": "bool"
        },
        {
          "indexed": false,
          "internalType": "uint256",
          "name": "payout",
          "type": "uint256"
        }
      ],
      "name": "BetResolved",
      "type": "event"
    },
    {
      "stateMutability": "payable",
      "type": "fallback"
    },
    {
      "inputs": [],
      "name": "NUM_RANDOM_WORDS",
      "outputs": [
        {
          "internalType": "uint32",
          "name": "",
          "type": "uint32"
        }
      ],
      "stateMutability": "view",
      "type": "function"
    },
    {
      "inputs": [
        {
          "internalType": "uint256",
          "name": "",
          "type": "uint256"
        }
      ],
      "name": "allRequestIds",
      "outputs": [
        {
          "internalType": "uint256",
          "name": "",
          "type": "uint256"
        }
      ],
      "stateMutability": "view",
      "type": "function"
    },
    {
      "inputs": [
        {
          "internalType": "uint256",
          "name": "",
          "type": "uint256"
        }
      ],
      "name": "bets",
      "outputs": [
        {
          "internalType": "address",
          "name": "player",
          "type": "address"
        },
        {
          "internalType": "uint256",
          "name": "amount",
          "type": "uint256"
        },
        {
          "internalType": "uint256",
          "name": "multiplier",
          "type": "uint256"
        },
        {
          "internalType": "bool",
          "name": "resolved",
          "type": "bool"
        },
        {
          "internalType": "bool",
          "name": "won",
          "type": "bool"
        },
        {
          "internalType": "uint256",
          "name": "payout",
          "type": "uint256"
        }
      ],
      "stateMutability": "view",
      "type": "function"
    },
    {
      "inputs": [],
      "name": "callbackGasLimit",
      "outputs": [
        {
          "internalType": "uint32",
          "name": "",
          "type": "uint32"
        }
      ],
      "stateMutability": "view",
      "type": "function"
    },
    {
      "inputs": [
        {
          "internalType": "uint256",
          "name": "requestId",
          "type": "uint256"
        }
      ],
      "name": "getBetInfo",
      "outputs": [
        {
          "internalType": "address",
          "name": "player",
          "type": "address"
        },
        {
          "internalType": "uint256",
          "name": "amount",
          "type": "uint256"
        },
        {
          "internalType": "uint256",
          "name": "multiplier",
          "type": "uint256"
        },
        {
          "internalType": "bool",
          "name": "resolved",
          "type": "bool"
        },
        {
          "internalType": "bool",
          "name": "won",
          "type": "bool"
        },
        {
          "internalType": "uint256",
          "name": "payout",
          "type": "uint256"
        }
      ],
      "stateMutability": "view",
      "type": "function"
    },
    {
      "inputs": [],
      "name": "keyHash",
      "outputs": [
        {
          "internalType": "bytes32",
          "name": "",
          "type": "bytes32"
        }
      ],
      "stateMutability": "view",
      "type": "function"
    },
    {
      "inputs": [
        {
          "internalType": "uint256",
          "name": "multiplier",
          "type": "uint256"
        }
      ],
      "name": "placeBet",
      "outputs": [
        {
          "internalType": "uint256",
          "name": "requestId",
          "type": "uint256"
        }
      ],
      "stateMutability": "payable",
      "type": "function"
    },
    {
      "inputs": [
        {
          "internalType": "uint256",
          "name": "requestId",
          "type": "uint256"
        },
        {
          "internalType": "uint256[]",
          "name": "randomWords",
          "type": "uint256[]"
        }
      ],
      "name": "rawFulfillRandomWords",
      "outputs": [],
      "stateMutability": "nonpayable",
      "type": "function"
    },
    {
      "inputs": [],
      "name": "requestConfirmations",
      "outputs": [
        {
          "internalType": "uint16",
          "name": "",
          "type": "uint16"
        }
      ],
      "stateMutability": "view",
      "type": "function"
    },
    {
      "inputs": [],
      "name": "s_subscriptionId",
      "outputs": [
        {
          "internalType": "uint64",
          "name": "",
          "type": "uint64"
        }
      ],
      "stateMutability": "view",
      "type": "function"
    },
    {
      "stateMutability": "payable",
      "type": "receive"
    }
  ],
  "bytecode": "0x60a06040526002805465ffffffffffff191664030d40000317905534801561002657600080fd5b50604051610bdf380380610bdf83398101604081905261004591610096565b6001600160601b0319606084901b16608052600080546001600160401b03909316600160a01b026001600160e01b03199093166001600160a01b0390941693909317919091179091556001556100f1565b6000806000606084860312156100ab57600080fd5b83516001600160a01b03811681146100c257600080fd5b60208501519093506001600160401b03811681146100df57600080fd5b80925050604084015190509250925092565b60805160601c610ac96101166000396000818161060501526106470152610ac96000f3fe60806040526004361061008f5760003560e01c806361728f391161005657806361728f39146101c857806379141f80146101de5780638ac000211461026f578063968e5a0d146102b0578063b0fb162f146102d057005b806310fe7c48146100985780631fe543e3146100be57806322af00fa146100de57806324f746971461017b5780634028400c146101b357005b3661009657005b005b6100ab6100a63660046108f9565b6102fe565b6040519081526020015b60405180910390f35b3480156100ca57600080fd5b506100966100d936600461092b565b6105fa565b3480156100ea57600080fd5b506101406100f93660046108f9565b6003602081905260009182526040909120805460018201546002830154938301546004909301546001600160a01b03909216939092909160ff808316926101009004169086565b604080516001600160a01b039097168752602087019590955293850192909252151560608401521515608083015260a082015260c0016100b5565b34801561018757600080fd5b5060025461019e9062010000900463ffffffff1681565b60405163ffffffff90911681526020016100b5565b3480156101bf57600080fd5b5061019e600181565b3480156101d457600080fd5b506100ab60015481565b3480156101ea57600080fd5b506101406101f93660046108f9565b600090815260036020818152604092839020835160c08101855281546001600160a01b0316808252600183015493820184905260028301549582018690529382015460ff8082161515606084018190526101009092041615156080830181905260049093015460a0909201829052939592949392565b34801561027b57600080fd5b5060005461029790600160a01b900467ffffffffffffffff1681565b60405167ffffffffffffffff90911681526020016100b5565b3480156102bc57600080fd5b506100ab6102cb3660046108f9565b610682565b3480156102dc57600080fd5b506002546102eb9061ffff1681565b60405161ffff90911681526020016100b5565b6000600282101580156103125750600a8211155b6103635760405162461bcd60e51b815260206004820152601860248201527f4d756c7469706c696572206d75737420626520322e2e3130000000000000000060448201526064015b60405180910390fd5b600034116103aa5760405162461bcd60e51b8152602060048201526014602482015273135d5cdd081cd95b9908115512081d1bc818995d60621b604482015260640161035a565b60006103b68380610a10565b6103cf906e0b8e3a78112e814d515658000000006109fc565b90506103db8334610a10565b47101561042a5760405162461bcd60e51b815260206004820152601e60248201527f486f7573652063616e6e6f7420636f7665722074686973207061796f75740000604482015260640161035a565b600054600180546002546040516305d3b1d360e41b81526004810192909252600160a01b840467ffffffffffffffff16602483015261ffff8116604483015262010000900463ffffffff16606482015260848101919091526001600160a01b0390911690635d3b1d309060a401602060405180830381600087803b1580156104b157600080fd5b505af11580156104c5573d6000803e3d6000fd5b505050506040513d601f19601f820116820180604052508101906104e99190610912565b6040805160c081018252338082523460208084018281528486018a81526000606087018181526080880182815260a089018381528b845260038088528b85209a518b546001600160a01b0319166001600160a01b03909116178b5595516001808c0191909155945160028b015591519489018054915161ffff1990921695151561ff0019169590951761010091151591909102179093559151600496870155855490810186559490527f8a35acfbc15ff81a39ae7d344fd709f28e8600b4aa8c65c6b64bfe7fe36bd19b909301859055835190815291820187905292945084917f1b8a9031cb9351278d70a994f81536e9e08c91162e64f92b2fe4766fb7a891b4910160405180910390a350919050565b336001600160a01b037f000000000000000000000000000000000000000000000000000000000000000016146106745760405163073e64fd60e21b81523360048201526001600160a01b037f000000000000000000000000000000000000000000000000000000000000000016602482015260440161035a565b61067e82826106a3565b5050565b6004818154811061069257600080fd5b600091825260209091200154905081565b60008281526003602081905260409091209081015460ff16156106fb5760405162461bcd60e51b815260206004820152601060248201526f105b1c9958591e481c995cdbdb1d995960821b604482015260640161035a565b600081600101541161073f5760405162461bcd60e51b815260206004820152600d60248201526c10995d081b9bdd08199bdd5b99609a1b604482015260640161035a565b60038101805460ff191660011790558151600090670de0b6b3a7640000908490839061076d5761076d610a67565b602002602001015161077f9190610a3d565b60028301549091506000906107949080610a10565b6107ad906e0b8e3a78112e814d515658000000006109fc565b60038401805461ff0019168285106101008102919091179091559091508015610893576000846002015485600101546107e69190610a10565b6004860181905585546040519192506000916001600160a01b039091169083908381818185875af1925050503d806000811461083e576040519150601f19603f3d011682016040523d82523d6000602084013e610843565b606091505b505090508061088c5760405162461bcd60e51b815260206004820152601560248201527411985a5b1959081d1bc81cd95b99081c185e5bdd5d605a1b604482015260640161035a565b505061089b565b600060048501555b835460048501546040516001600160a01b039092169188917fd1a7f8e02608013b9bd7679e3e05ad532e9c83829a935961f6eb37606a252585916108e9918615158252602082015260400190565b60405180910390a3505050505050565b60006020828403121561090b57600080fd5b5035919050565b60006020828403121561092457600080fd5b5051919050565b6000806040838503121561093e57600080fd5b8235915060208084013567ffffffffffffffff8082111561095e57600080fd5b818601915086601f83011261097257600080fd5b81358181111561098457610984610a7d565b8060051b604051601f19603f830116810181811085821117156109a9576109a9610a7d565b604052828152858101935084860182860187018b10156109c857600080fd5b600095505b838610156109eb5780358552600195909501949386019386016109cd565b508096505050505050509250929050565b600082610a0b57610a0b610a51565b500490565b6000816000190483118215151615610a3857634e487b7160e01b600052601160045260246000fd5b500290565b600082610a4c57610a4c610a51565b500690565b634e487b7160e01b600052601260045260246000fd5b634e487b7160e01b600052603260045260246000fd5b634e487b7160e01b600052604160045260246000fdfea2646970667358221220369961fd7fe9a527969ca1a28ffc5eaab5b78845ffb6d9036a13200807ad5b0f64736f6c63430008070033",
  "linkReferences": {},
  "deployedLinkReferences": {}
}